:060000000A128A11FC2F18
:100EDE00F000700883120313930008000A128A119F
:100EEE009E270A128A1183160313111408000A1280
:100EFE008A119E270A128A118316031311150800F0
:100F0E000A128A119E270A128A118316031391164A
:100F1E00111608002830831203139400831603134E
:100F2E009101940109309300871507160800831666
:100F3E0003131419A32FA42F9E2F11081F39031D5D
:100F4E00A92FAA2F9E2F08000A128A119E270A1275
:100F5E008A118316031391150A128A119E270A12FB
:100F6E008A11831203131308F0000A128A118727BD
:100F7E000A128A117008080083160313860188016D
:100F8E008312031388010A128A1191270A128A11F9
:100F9E000A128A1175270A128A1141300A128A1111
:100FAE006F270A128A110A128A11AB270A128A11A6
:100FBE008312031386000A128A117E270A128A11DF
:100FCE000330F3008A30F2005530F100F10BED2FB3
:100FDE00F20BED2FF30BED2FF42F083083120313CA
:100FEE008806CF2F0A128A11002883010A128A114D
:020FFE00C32FFF
:02400E00713F00
:00000001FF
